{
  "contractName": "PermitFactory",
  "abi": [
    {
      "constant": false,
      "inputs": [
        {
          "name": "_addressList",
          "type": "address[]"
        },
        {
          "name": "_country",
          "type": "bytes2"
        }
      ],
      "name": "addAddresses",
      "outputs": [],
      "payable": false,
      "stateMutability": "nonpayable",
      "type": "function"
    },
    {
      "constant": true,
      "inputs": [
        {
          "name": "",
          "type": "bytes2"
        },
        {
          "name": "",
          "type": "uint256"
        }
      ],
      "name": "authorityMapping",
      "outputs": [
        {
          "name": "",
          "type": "address"
        }
      ],
      "payable": false,
      "stateMutability": "view",
      "type": "function"
    },
    {
      "constant": true,
      "inputs": [
        {
          "name": "",
          "type": "bytes32"
        }
      ],
      "name": "permits",
      "outputs": [
        {
          "name": "exportCountry",
          "type": "bytes2"
        },
        {
          "name": "importCountry",
          "type": "bytes2"
        },
        {
          "name": "permitType",
          "type": "uint8"
        },
        {
          "name": "nonce",
          "type": "uint256"
        }
      ],
      "payable": false,
      "stateMutability": "view",
      "type": "function"
    },
    {
      "constant": false,
      "inputs": [
        {
          "name": "_toRemove",
          "type": "address"
        }
      ],
      "name": "removeAddress",
      "outputs": [],
      "payable": false,
      "stateMutability": "nonpayable",
      "type": "function"
    },
    {
      "constant": true,
      "inputs": [
        {
          "name": "",
          "type": "bytes32"
        }
      ],
      "name": "specimens",
      "outputs": [
        {
          "name": "permitHash",
          "type": "bytes32"
        },
        {
          "name": "quantity",
          "type": "uint256"
        },
        {
          "name": "scientificName",
          "type": "bytes32"
        },
        {
          "name": "commmonName",
          "type": "bytes32"
        },
        {
          "name": "description",
          "type": "bytes32"
        },
        {
          "name": "originHash",
          "type": "bytes32"
        },
        {
          "name": "reExportHash",
          "type": "bytes32"
        }
      ],
      "payable": false,
      "stateMutability": "view",
      "type": "function"
    },
    {
      "constant": true,
      "inputs": [
        {
          "name": "",
          "type": "bytes32"
        }
      ],
      "name": "accepted",
      "outputs": [
        {
          "name": "",
          "type": "bool"
        }
      ],
      "payable": false,
      "stateMutability": "view",
      "type": "function"
    },
    {
      "constant": true,
      "inputs": [],
      "name": "owner",
      "outputs": [
        {
          "name": "",
          "type": "address"
        }
      ],
      "payable": false,
      "stateMutability": "view",
      "type": "function"
    },
    {
      "constant": true,
      "inputs": [
        {
          "name": "",
          "type": "address"
        }
      ],
      "name": "authorityToCountry",
      "outputs": [
        {
          "name": "",
          "type": "bytes2"
        }
      ],
      "payable": false,
      "stateMutability": "view",
      "type": "function"
    },
    {
      "constant": true,
      "inputs": [
        {
          "name": "",
          "type": "address"
        }
      ],
      "name": "whitelist",
      "outputs": [
        {
          "name": "",
          "type": "bool"
        }
      ],
      "payable": false,
      "stateMutability": "view",
      "type": "function"
    },
    {
      "constant": false,
      "inputs": [
        {
          "name": "_country",
          "type": "bytes2"
        }
      ],
      "name": "removeCountry",
      "outputs": [],
      "payable": false,
      "stateMutability": "nonpayable",
      "type": "function"
    },
    {
      "constant": false,
      "inputs": [
        {
          "name": "_addressList",
          "type": "address[]"
        }
      ],
      "name": "removeAddresses",
      "outputs": [],
      "payable": false,
      "stateMutability": "nonpayable",
      "type": "function"
    },
    {
      "constant": false,
      "inputs": [
        {
          "name": "_toAdd",
          "type": "address"
        },
        {
          "name": "_country",
          "type": "bytes2"
        }
      ],
      "name": "addAddress",
      "outputs": [],
      "payable": false,
      "stateMutability": "nonpayable",
      "type": "function"
    },
    {
      "constant": true,
      "inputs": [
        {
          "name": "_country",
          "type": "bytes2"
        }
      ],
      "name": "getCountry",
      "outputs": [
        {
          "name": "",
          "type": "address[]"
        }
      ],
      "payable": false,
      "stateMutability": "view",
      "type": "function"
    },
    {
      "constant": true,
      "inputs": [
        {
          "name": "",
          "type": "bytes32"
        }
      ],
      "name": "confirmed",
      "outputs": [
        {
          "name": "",
          "type": "bool"
        }
      ],
      "payable": false,
      "stateMutability": "view",
      "type": "function"
    },
    {
      "constant": false,
      "inputs": [
        {
          "name": "newOwner",
          "type": "address"
        }
      ],
      "name": "transferOwnership",
      "outputs": [],
      "payable": false,
      "stateMutability": "nonpayable",
      "type": "function"
    },
    {
      "anonymous": false,
      "inputs": [
        {
          "indexed": true,
          "name": "permitHash",
          "type": "bytes32"
        },
        {
          "indexed": true,
          "name": "exportCountry",
          "type": "bytes2"
        },
        {
          "indexed": true,
          "name": "importCountry",
          "type": "bytes2"
        }
      ],
      "name": "PermitCreated",
      "type": "event"
    },
    {
      "anonymous": false,
      "inputs": [
        {
          "indexed": true,
          "name": "permitHash",
          "type": "bytes32"
        },
        {
          "indexed": true,
          "name": "exportCountry",
          "type": "bytes2"
        },
        {
          "indexed": true,
          "name": "importCountry",
          "type": "bytes2"
        },
        {
          "indexed": false,
          "name": "isAccepted",
          "type": "bool"
        }
      ],
      "name": "PermitConfirmed",
      "type": "event"
    },
    {
      "anonymous": false,
      "inputs": [
        {
          "indexed": false,
          "name": "added",
          "type": "address"
        },
        {
          "indexed": true,
          "name": "country",
          "type": "bytes2"
        }
      ],
      "name": "AddressWhitelisted",
      "type": "event"
    },
    {
      "anonymous": false,
      "inputs": [
        {
          "indexed": false,
          "name": "removed",
          "type": "bytes2"
        }
      ],
      "name": "CountryRemovedFromWhitelist",
      "type": "event"
    },
    {
      "anonymous": false,
      "inputs": [
        {
          "indexed": false,
          "name": "removed",
          "type": "address"
        },
        {
          "indexed": true,
          "name": "country",
          "type": "bytes2"
        }
      ],
      "name": "AddressRemoved",
      "type": "event"
    },
    {
      "anonymous": false,
      "inputs": [
        {
          "indexed": true,
          "name": "previousOwner",
          "type": "address"
        },
        {
          "indexed": true,
          "name": "newOwner",
          "type": "address"
        }
      ],
      "name": "OwnershipTransferred",
      "type": "event"
    },
    {
      "constant": false,
      "inputs": [
        {
          "name": "_exportCountry",
          "type": "bytes2"
        },
        {
          "name": "_importCountry",
          "type": "bytes2"
        },
        {
          "name": "_permitType",
          "type": "uint8"
        },
        {
          "name": "_exporter",
          "type": "bytes32[3]"
        },
        {
          "name": "_importer",
          "type": "bytes32[3]"
        },
        {
          "name": "_quantities",
          "type": "uint256[]"
        },
        {
          "name": "_scientificNames",
          "type": "bytes32[]"
        },
        {
          "name": "_commonNames",
          "type": "bytes32[]"
        },
        {
          "name": "_descriptions",
          "type": "bytes32[]"
        },
        {
          "name": "_originHashes",
          "type": "bytes32[]"
        },
        {
          "name": "_reExportHashes",
          "type": "bytes32[]"
        }
      ],
      "name": "createPermit",
      "outputs": [],
      "payable": false,
      "stateMutability": "nonpayable",
      "type": "function"
    },
    {
      "constant": false,
      "inputs": [
        {
          "name": "_exportCountry",
          "type": "bytes2"
        },
        {
          "name": "_importCountry",
          "type": "bytes2"
        },
        {
          "name": "_permitType",
          "type": "uint8"
        },
        {
          "name": "_exporter",
          "type": "bytes32[3]"
        },
        {
          "name": "_importer",
          "type": "bytes32[3]"
        },
        {
          "name": "_quantities",
          "type": "uint256[]"
        },
        {
          "name": "_scientificNames",
          "type": "bytes32[]"
        },
        {
          "name": "_commonNames",
          "type": "bytes32[]"
        },
        {
          "name": "_descriptions",
          "type": "bytes32[]"
        },
        {
          "name": "_originHashes",
          "type": "bytes32[]"
        },
        {
          "name": "_reExportHashes",
          "type": "bytes32[]"
        }
      ],
      "name": "createPaperPermit",
      "outputs": [],
      "payable": false,
      "stateMutability": "nonpayable",
      "type": "function"
    },
    {
      "constant": false,
      "inputs": [
        {
          "name": "_permitHash",
          "type": "bytes32"
        },
        {
          "name": "_specimenHashes",
          "type": "bytes32[]"
        },
        {
          "name": "_isAccepted",
          "type": "bool"
        }
      ],
      "name": "confirmPermit",
      "outputs": [],
      "payable": false,
      "stateMutability": "nonpayable",
      "type": "function"
    },
    {
      "constant": true,
      "inputs": [
        {
          "name": "_permitHash",
          "type": "bytes32"
        }
      ],
      "name": "getPermit",
      "outputs": [
        {
          "name": "",
          "type": "bytes2"
        },
        {
          "name": "",
          "type": "bytes2"
        },
        {
          "name": "",
          "type": "uint8"
        },
        {
          "name": "",
          "type": "bytes32[3]"
        },
        {
          "name": "",
          "type": "bytes32[3]"
        },
        {
          "name": "",
          "type": "bytes32[]"
        },
        {
          "name": "",
          "type": "uint256"
        }
      ],
      "payable": false,
      "stateMutability": "view",
      "type": "function"
    }
  ],
  "bytecode": "0x6080604052600160045560008054600160a060020a033316600160a060020a03199091161790556119ed806100356000396000f3006080604052600436106101065763ffffffff7c01000000000000000000000000000000000000000000000000000000006000350416631969cafc811461010b5780631f89b43f146102ea5780633755043714610319578063394a0a3c1461035a57806339747ad51461044a57806339fcf3d4146104975780634ba79dfe1461067457806368d8bdc3146106955780638642afd1146106e55780638da5cb5b146107115780638f750809146107265780639b19251a14610764578063a33e2e7014610785578063a84eb999146107a7578063afc446cb146107c7578063b16f9ab0146107f5578063bc4f621414610867578063dbfe791b146108c5578063f2fde38b146108dd575b600080fd5b34801561011757600080fd5b506040805160608181019092526102e891600160f060020a0319600480358216936024359092169260ff604435169236929160c491906064906003908390839080828437505060408051606081810190925294979695818101959450925060039150839083908082843750506040805186358801803560208181028481018201909552818452979a99988801979296509082019450925082919085019084908082843750506040805187358901803560208181028481018201909552818452989b9a998901989297509082019550935083925085019084908082843750506040805187358901803560208181028481018201909552818452989b9a998901989297509082019550935083925085019084908082843750506040805187358901803560208181028481018201909552818452989b9a998901989297509082019550935083925085019084908082843750506040805187358901803560208181028481018201909552818452989b9a998901989297509082019550935083925085019084908082843750506040805187358901803560208181028481018201909552818452989b9a9989019892975090820195509350839250850190849080828437509497506108fe9650505050505050565b005b3480156102f657600080fd5b506102e86024600480358281019291013590600160f060020a0319903516610983565b34801561032557600080fd5b5061033e600160f060020a0319600435166024356109eb565b60408051600160a060020a039092168252519081900360200190f35b34801561036657600080fd5b50610372600435610a22565b60408051600160f060020a0319808a1682528816602082015260ff871691810191909152606080820190869080838360005b838110156103bc5781810151838201526020016103a4565b5050505090500184600360200280838360005b838110156103e75781810151838201526020016103cf565b5050505090500180602001838152602001828103825284818151815260200191508051906020019060200280838360005b83811015610430578181015183820152602001610418565b505050509050019850505050505050505060405180910390f35b34801561045657600080fd5b50610462600435610b6c565b60408051600160f060020a0319958616815293909416602084015260ff90911682840152606082015290519081900360800190f35b3480156104a357600080fd5b506040805160608181019092526102e891600160f060020a0319600480358216936024359092169260ff604435169236929160c491906064906003908390839080828437505060408051606081810190925294979695818101959450925060039150839083908082843750506040805186358801803560208181028481018201909552818452979a99988801979296509082019450925082919085019084908082843750506040805187358901803560208181028481018201909552818452989b9a998901989297509082019550935083925085019084908082843750506040805187358901803560208181028481018201909552818452989b9a998901989297509082019550935083925085019084908082843750506040805187358901803560208181028481018201909552818452989b9a998901989297509082019550935083925085019084908082843750506040805187358901803560208181028481018201909552818452989b9a998901989297509082019550935083925085019084908082843750506040805187358901803560208181028481018201909552818452989b9a998901989297509082019550935083925085019084908082843750949750610ba59650505050505050565b34801561068057600080fd5b506102e8600160a060020a0360043516610c08565b3480156106a157600080fd5b506106ad600435610cd0565b604080519788526020880196909652868601949094526060860192909252608085015260a084015260c0830152519081900360e00190f35b3480156106f157600080fd5b506106fd600435610d12565b604080519115158252519081900360200190f35b34801561071d57600080fd5b5061033e610d27565b34801561073257600080fd5b50610747600160a060020a0360043516610d36565b60408051600160f060020a03199092168252519081900360200190f35b34801561077057600080fd5b506106fd600160a060020a0360043516610d4e565b34801561079157600080fd5b506102e8600160f060020a031960043516610d63565b3480156107b357600080fd5b506102e86004803560248101910135610e8f565b3480156107d357600080fd5b506102e8600160a060020a0360043516600160f060020a031960243516610ef5565b34801561080157600080fd5b50610817600160f060020a031960043516611050565b60408051602080825283518183015283519192839290830191858101910280838360005b8381101561085357818101518382015260200161083b565b505050509050019250505060405180910390f35b34801561087357600080fd5b506040805160206004602480358281013584810280870186019097528086526102e8968435963696604495919490910192918291850190849080828437509497505050509135151592506110ec915050565b3480156108d157600080fd5b506106fd60043561122c565b3480156108e957600080fd5b506102e8600160a060020a0360043516611241565b600160a060020a03331660009081526002602052604090205460ff16151561092557600080fd5b33600160a060020a0381166000908152600360205260409020548c9190600160f060020a031980841660f060020a909202161461096157600080fd5b6109748d8d8d8d8d8d8d8d8d8d8d6112d9565b50505050505050505050505050565b6000805433600160a060020a0390811691161461099f57600080fd5b600083116109ac57600080fd5b5060005b828110156109e5576109dd8484838181106109c757fe5b90506020020135600160a060020a031683610ef5565b6001016109b0565b50505050565b600160205281600052604060002081815481101515610a0657fe5b600091825260209091200154600160a060020a03169150829050565b6000806000610a2f611882565b610a37611882565b600086815260056020526040812060080154606091908110610a5857600080fd5b60008881526005602052604090819020805460088201548351606081019485905260f060020a808402956201000085049091029464010000000090940460ff169360018101936004820193600790920192909190859060039082845b81548152600190910190602001808311610ab457505060408051606081019182905294985087935060039250905082845b81548152600190910190602001808311610ae5575050505050925081805480602002602001604051908101604052809291908181526020018280548015610b4c57602002820191906000526020600020905b81548152600190910190602001808311610b37575b505050505091509650965096509650965096509650919395979092949650565b6005602052600090815260409020805460089091015460f060020a808302926201000081049091029164010000000090910460ff169084565b600160a060020a03331660009081526002602052604090205460ff161515610bcc57600080fd5b33600160a060020a0381166000908152600360205260409020548b9190600160f060020a031980841660f060020a909202161461096157600080fd5b6000805433600160a060020a03908116911614610c2457600080fd5b600160a060020a03821660009081526003602052604090205460f060020a02600160f060020a0319161515610c5857600080fd5b50600160a060020a0381166000818152600260209081526040808320805460ff191690556003825291829020548251938452915160f060020a90920292600160f060020a03198416927f012cb708670280f09049c858bacbe08f824445f1d780472ef30f23f4b570b3d2929181900390910190a25050565b60066020528060005260406000206000915090508060000154908060010154908060020154908060030154908060040154908060050154908060060154905087565b60086020526000908152604090205460ff1681565b600054600160a060020a031681565b60036020526000908152604090205460f060020a0281565b60026020526000908152604090205460ff1681565b600080546060919033600160a060020a03908116911614610d8357600080fd5b600160f060020a0319831660009081526001602052604081205411610da757600080fd5b600160f060020a0319831660009081526001602090815260409182902080548351818402810184019094528084529091830182828015610e1057602002820191906000526020600020905b8154600160a060020a03168152600190910190602001808311610df2575b50505050509150600090505b8151811015610e4d57610e458282815181101515610e3657fe5b90602001906020020151610c08565b600101610e1c565b60408051600160f060020a03198516815290517f44878b06e4f38d731134f7272cc954f11fe40c4e5b06a9955b93a666404fd7a09181900360200190a1505050565b6000805433600160a060020a03908116911614610eab57600080fd5b60008211610eb857600080fd5b5060005b81811015610ef057610ee8838383818110610ed357fe5b90506020020135600160a060020a0316610c08565b600101610ebc565b505050565b60005433600160a060020a03908116911614610f1057600080fd5b600160a060020a03821660009081526003602052604090205460f060020a02600160f060020a0319161515610fb157600160f060020a031981166000908152600160208181526040808420805493840181558452818420909201805473ffffffffffffffffffffffffffffffffffffffff1916600160a060020a0387169081179091558352600390529020805461ffff191660f060020a8304179055610fe9565b600160a060020a03821660009081526003602052604090205460f060020a02600160f060020a031990811690821614610fe957600080fd5b600160a060020a038216600081815260026020908152604091829020805460ff1916600117905581519283529051600160f060020a03198416927f54778f83016b4b10b457484854d69a075759c845842fe9cd5a969abb760140ba92908290030190a25050565b600160f060020a031981166000908152600160205260408120546060911061107757600080fd5b600160f060020a03198216600090815260016020908152604091829020805483518184028101840190945280845290918301828280156110e057602002820191906000526020600020905b8154600160a060020a031681526001909101906020018083116110c2575b50505050509050919050565b600160a060020a03331660009081526002602052604081205460ff16151561111357600080fd5b60008481526007602052604090205460ff161561112f57600080fd5b6000848152600560205260408120600801541161114b57600080fd5b5060005b825181101561119b57836000191660066000858481518110151561116f57fe5b60209081029091018101518252810191909152604001600020541461119357600080fd5b60010161114f565b6000848152600760209081526040808320805460ff1990811660011790915560088352818420805487151592168217905560058352928190205481519384529051600160f060020a031960f060020a62010000840481028216959302169288927f54fa3a29d2fbf46af4494911e680e5b03afbf41a0994bd6263eef42651a68b40929081900390910190a450505050565b60076020526000908152604090205460ff1681565b60005433600160a060020a0390811691161461125c57600080fd5b600160a060020a038116151561127157600080fd5b60008054604051600160a060020a03808516939216917f8be0079c531659141344cd1fd0a4f28419497f9722a3daafe3b4186f6b6457e091a36000805473ffffffffffffffffffffffffffffffffffffffff1916600160a060020a0392909216919091179055565b6112e16118a1565b600060e0604051908101604052808e7dffffffffffffffffffffffffffffffffffffffffffffffffffffffffffff191681526020018d7dffffffffffffffffffffffffffffffffffffffffffffffffffffffffffff191681526020018c60ff1681526020018b81526020018a8152602001895160405190808252806020026020018201604052801561137d578160200160208202803883390190505b50815260200160045481525091506113b1826000015183602001518460400151856060015186608001518760c001516114e0565b60008181526005602090815260409182902085518154928701519387015161ffff1990931660f060020a918290041763ffff000019166201000091909404029290921764ff00000000191664010000000060ff909216919091021781556060840151919250839161142890600183019060036118ec565b50608082015161143e90600483019060036118ec565b5060a0820151805161145a91600784019160209091019061192c565b5060c0820151816008015590505061147781898989898989611610565b60208201518251604051600160f060020a0319928316929091169083907f2e5900e669d61dba8a0e9a54df81b8d04231cfd2ba2d7ce0b1a3c244a7edd25590600090a46004546114ce90600163ffffffff6117be16565b60045550505050505050505050505050565b604051600160f060020a03198088166020830190815290871660228301527f010000000000000000000000000000000000000000000000000000000000000060ff87160260248301526000918891889188918891889188916025018460608083838d5b8381101561155b578181015183820152602001611543565b5050505090500183600360200280838360005b8381101561158657818101518382015260200161156e565b5050505090500182815260200196505050505050506040516020818303038152906040526040518082805190602001908083835b602083106115d95780518252601f1990920191602091820191016115ba565b5181516020939093036101000a600019018019909116921691909117905260405192018290039091209a9950505050505050505050565b600061161a611968565b60008092505b88518310156117b2576040805160e081019091528a8152895160208201908b908690811061164a57fe5b906020019060200201518152602001898581518110151561166757fe5b90602001906020020151600019168152602001888581518110151561168857fe5b9060200190602002015160001916815260200187858151811015156116a957fe5b9060200190602002015160001916815260200186858151811015156116ca57fe5b9060200190602002015160001916815260200185858151811015156116eb57fe5b602090810290910181015190915281519082015160408301516060840151608085015160a086015160c0870151969850611724966117d1565b60008b8152600560205260409020600701805491925082918590811061174657fe5b600091825260208083209091019290925582815260068083526040918290208551815592850151600180850191909155918501516002840155606085015160038401556080850151600484015560a0850151600584015560c08501519201919091559290920191611620565b50505050505050505050565b818101828110156117cb57fe5b92915050565b6040805160208082018a9052818301899052606082018890526080820187905260a0820186905260c0820185905260e080830185905283518084039091018152610100909201928390528151600093918291908401908083835b6020831061184a5780518252601f19909201916020918201910161182b565b5181516020939093036101000a600019018019909116921691909117905260405192018290039091209b9a5050505050505050505050565b6060604051908101604052806003906020820280388339509192915050565b604080516101608101825260008082526020820181905291810191909152606081016118cb611882565b81526020016118d8611882565b815260200160608152602001600081525090565b826003810192821561191c579160200282015b8281111561191c57825182556020909201916001909101906118ff565b506119289291506119a4565b5090565b82805482825590600052602060002090810192821561191c579160200282018281111561191c57825182556020909201916001909101906118ff565b6040805160e081018252600080825260208201819052918101829052606081018290526080810182905260a0810182905260c081019190915290565b6119be91905b8082111561192857600081556001016119aa565b905600a165627a7a72305820609d4a78964139a422861fbad3c5c519b2d0a224b9d7e5f8b04c6fd27ef63e100029",
  "source": "pragma solidity ^0.4.23;\n\nimport \"./Whitelist.sol\";\nimport \"openzeppelin-solidity/contracts/math/SafeMath.sol\";\n\n\n/**\n * @title PermitFactory contract\n * @dev Contains all CITES permit related functions.\n * @author Dong-Ha Kim, Lukas Renner\n */\ncontract PermitFactory is Whitelist {\n\n  // Initialize the safe math data types.\n  using SafeMath for uint256;\n\n\n  /*\n   * Structures\n   */\n\n  /**\n   * A permit object as digital representation of a real permit provided as paper.\n   * Contains a bunch of information to describe this permit.\n   * A permit is between to countries, the exporting and importing one.\n   * With a permit a set of specimens get exported, which are linked here.\n   * Each permit gets a numeric nonce value to make sure this permit gets unique.\n   */\n  struct Permit {\n    bytes2 exportCountry; // ISO country code of export country\n    bytes2 importCountry; // ISO country code of import country\n    uint8 permitType; // type of permit: 0 -> Export, 1 -> Re-Export, 2 -> Other\n    bytes32[3] exporter; // name and address of exporter: [\"name\", \"street\", \"city\"]\n    bytes32[3] importer; // name and address of importer: [\"name\", \"street\", \"city\"]\n    bytes32[] specimenHashes; // hashes of specimens\n    uint nonce; // used to create unique hash\n  }\n\n  /**\n   * As part of a permit, it describes the exported specimens.\n   * Each specimen object is for one type of specimen.\n   * It contains a bunch of information to describe this partial export.\n   * Each permit has a backward relation to its permit.\n   * Species can get linked to a new permit, if they get re-exported.\n   * Nonetheless it always keeps its relation to the origin permit, where it gets created\n   * for.\n   */\n  struct Specimen {\n    bytes32 permitHash; // hash of parent permit\n    uint quantity; // quantity of specimen\n    bytes32 scientificName; // scientific name of species\n    bytes32 commmonName; // common name of specimen\n    bytes32 description; // description of specimen\n    bytes32 originHash; // permit hash of origin permit\n    bytes32 reExportHash; // permit hash of last re-export\n  }\n\n\n  /*\n   * Events\n   */\n\n  /**\n   * Will be thrown when a new permit has been created.\n   * Also if the permit itself has been already created, this event is thrown after all\n   * specimen objects related to this permit have been created as well.\n   */\n  event PermitCreated (\n    bytes32 indexed permitHash,\n    bytes2 indexed exportCountry,\n    bytes2 indexed importCountry\n  );\n\n  /**\n   * Will be thrown when a part gets confirmed by an authority.\n   * Contains also the information if the permit was accepted or not.\n   */\n  event PermitConfirmed (\n    bytes32 indexed permitHash,\n    bytes2 indexed exportCountry,\n    bytes2 indexed importCountry,\n    bool isAccepted\n  );\n\n\n  /*\n   * Global Variables\n   */\n\n  uint permitNonce = 1; // Used to generate unique hash values for permit objects and all related objects as well.\n  mapping (bytes32 => Permit) public permits; // Used to store permits to their identifying hash values.\n  mapping (bytes32 => Specimen) public specimens; // Used to store specimens to their identifying hash values.\n  mapping (bytes32 => bool) public confirmed; // Maps the hash values of permits to the flag if they have been confirmed.\n  mapping (bytes32 => bool) public accepted; // Maps the hash values of permits to the flag if they have been accepted.\n\n\n  /**\n   * Create a new permit object and register it.\n   *\n   * @dev Called by CITES authority in exporting country.\n   * @dev Digital permit flow.\n   * @param _exportCountry ISO country code of exporting country\n   * @param _importCountry ISO country code of importing country\n   * @param _permitType type of permit: 1 -> Export, 2 -> Re-Export, 3 -> Other\n   * @param _exporter name and address of exporter: [\"name\", \"street\", \"city\"]\n   * @param _importer name and address of importer: [\"name\", \"street\", \"city\"]\n   * @param _quantities quantities of specimens\n   * @param _scientificNames sc. names of specimens\n   * @param _commonNames common names of specimens\n   * @param _descriptions specimen descriptions\n   * @param _originHashes hashes of origin permits of specimens\n   * @param _reExportHashes hashes of last re-export permits of specimens\n   */\n  function createPermit(\n    bytes2 _exportCountry,\n    bytes2 _importCountry,\n    uint8 _permitType,\n    bytes32[3] _exporter,\n    bytes32[3] _importer,\n    uint[] _quantities,\n    bytes32[] _scientificNames,\n    bytes32[] _commonNames,\n    bytes32[] _descriptions,\n    bytes32[] _originHashes,\n    bytes32[] _reExportHashes\n  )\n    public\n    onlyWhitelisted\n    whitelistedForCountry(_exportCountry, msg.sender)\n  {\n    _createPermit(\n      _exportCountry,\n      _importCountry,\n      _permitType,\n      _exporter,\n      _importer,\n      _quantities,\n      _scientificNames,\n      _commonNames,\n      _descriptions,\n      _originHashes,\n      _reExportHashes\n    );\n  }\n\n  /**\n   * Create a new paper permit object and register it.\n   *\n   * @dev Called by CITES authority in importing country.\n   * @dev Paper-based permit flow.\n   * @param _exportCountry ISO country code of exporting country\n   * @param _importCountry ISO country code of importing country\n   * @param _permitType type of permit: 1 -> Export, 2 -> Re-Export, 3 -> Other\n   * @param _exporter name and address of exporter: [\"name\", \"street\", \"city\"]\n   * @param _importer name and address of importer: [\"name\", \"street\", \"city\"]\n   * @param _quantities quantities of specimens\n   * @param _scientificNames sc. names of specimens\n   * @param _commonNames common names of specimens\n   * @param _descriptions specimen descriptions\n   * @param _originHashes hashes of origin permits of specimens\n   * @param _reExportHashes hashes of last re-export permits of specimens\n   */\n  function createPaperPermit(\n    bytes2 _exportCountry,\n    bytes2 _importCountry,\n    uint8 _permitType,\n    bytes32[3] _exporter,\n    bytes32[3] _importer,\n    uint[] _quantities,\n    bytes32[] _scientificNames,\n    bytes32[] _commonNames,\n    bytes32[] _descriptions,\n    bytes32[] _originHashes,\n    bytes32[] _reExportHashes\n  )\n    public\n    onlyWhitelisted\n    whitelistedForCountry(_importCountry, msg.sender)\n  {\n    _createPermit(\n      _exportCountry,\n      _importCountry,\n      _permitType,\n      _exporter,\n      _importer,\n      _quantities,\n      _scientificNames,\n      _commonNames,\n      _descriptions,\n      _originHashes,\n      _reExportHashes\n    );\n  }\n\n  /**\n   * Mark a permit as confirmed and set the accepted flag.\n   * Requires that all the permit and specimen hashes exist.\n   * Required that the permit is not confirmed already.\n   *\n   * @dev Called by CITES authority.\n   * @param _permitHash hash of permit that gets confirmed\n   * @param _specimenHashes hashes of specimens\n   * @param _isAccepted whether permit got imported or not\n   */\n  function confirmPermit(\n    bytes32 _permitHash,\n    bytes32[] _specimenHashes,\n    bool _isAccepted\n  )\n    public\n    onlyWhitelisted\n  {\n    // Make sure the permit is not confirmed already.\n    require(!confirmed[_permitHash]);\n\n    // Check all provided hash values for to exist.\n    require(permits[_permitHash].nonce > 0);\n\n    for (uint i = 0; i < _specimenHashes.length; i++) {\n      require(specimens[_specimenHashes[i]].permitHash == _permitHash);\n    }\n\n    // Mark the permit as confirmed and set the acceptance mapping.\n    confirmed[_permitHash] = true;\n    accepted[_permitHash] = _isAccepted;\n\n    emit PermitConfirmed(\n      _permitHash,\n      permits[_permitHash].exportCountry,\n      permits[_permitHash].importCountry,\n      _isAccepted\n    );\n  }\n\n  /**\n   * Generate a unique hash value for a permit.\n   * Use a bunch of attributes to retrieve this value.\n   *\n   * @dev Returns unique hash of permit.\n   * @param _exportCountry ISO country code of export country\n   * @param _importCountry ISO country code of import country\n   * @param _permitType type of permit: 1 -> Export, 2 -> Re-Export, 3 -> Other\n   * @param _exporter name and address of exporter: [\"name\", \"street\", \"city\"]\n   * @param _importer name and address of importer: [\"name\", \"street\", \"city\"]\n   * @param _nonce number used to create unique hash\n   * @return unique permit hash\n   */\n  function _getPermitHash(\n    bytes2 _exportCountry,\n    bytes2 _importCountry,\n    uint8 _permitType,\n    bytes32[3] _exporter,\n    bytes32[3] _importer,\n    uint _nonce\n  )\n    private\n    pure\n    returns (bytes32)\n  {\n    return keccak256(\n      abi.encodePacked(\n        _exportCountry,\n        _importCountry,\n        _permitType,\n        _exporter,\n        _importer,\n        _nonce\n      )\n    );\n  }\n\n  /**\n   * Generate a unique hash value for a specimen.\n   * Use a bunch of attributes to retrieve this value.\n   *\n   * @dev Returns unique hash of specimen.\n   * @param _permitHash hash parent permit\n   * @param _quantity quantity of specimen\n   * @param _scientificName sc. name of specimen\n   * @param _commonName common name of specimen\n   * @param _description description of specimen\n   * @param _originHash hash of origin permit of specimen\n   * @param _reExportHash hash of last re-export permit of specimen\n   * @return unique specimen hash\n   */\n  function _getSpecimenHash(\n    bytes32 _permitHash,\n    uint _quantity,\n    bytes32 _scientificName,\n    bytes32 _commonName,\n    bytes32 _description,\n    bytes32 _originHash,\n    bytes32 _reExportHash\n  )\n    private\n    pure\n    returns (bytes32)\n  {\n    return keccak256(\n      abi.encodePacked(\n        _permitHash,\n        _quantity,\n        _scientificName,\n        _commonName,\n        _description,\n        _originHash,\n        _reExportHash\n      )\n    );\n  }\n\n  /**\n   * Retrieve the permit object for a given hash value as key.\n   * Require that the hash value exists.\n   *\n   * Do not check if a permit exists for this hash value.\n   * @dev Custom getter function to retrieve permit from contract storage.\n   * @dev Needed because client can not directly get array from mapping.\n   * @param _permitHash hash of permit\n   * @return permit as tuple\n   */\n  function getPermit(bytes32 _permitHash)\n    public\n    view\n    returns (bytes2, bytes2, uint8, bytes32[3], bytes32[3], bytes32[], uint)\n  {\n    // Check if a permit for this hash exist.\n    // Cause the initial nonce is zero, all permits must have a nonce with a higher value.\n    require(permits[_permitHash].nonce > 0);\n\n    // Build a tuple with the attributes of the permit object.\n    return (\n      permits[_permitHash].exportCountry,\n      permits[_permitHash].importCountry,\n      permits[_permitHash].permitType,\n      permits[_permitHash].exporter,\n      permits[_permitHash].importer,\n      permits[_permitHash].specimenHashes,\n      permits[_permitHash].nonce\n    );\n  }\n\n  /**\n   * @dev Creates a CITES permit and stores it in the contract.\n   * @dev A hash of the permit is used as an unique key.\n   * @param _exportCountry ISO country code of exporting country\n   * @param _importCountry ISO country code of importing country\n   * @param _permitType type of permit: 1 -> Export, 2 -> Re-Export, 3 -> Other\n   * @param _exporter name and address of exporter: [\"name\", \"street\", \"city\"]\n   * @param _importer name and address of importer: [\"name\", \"street\", \"city\"]\n   * @param _quantities quantities of specimens\n   * @param _scientificNames sc. names of specimens\n   * @param _commonNames common names of specimens\n   * @param _descriptions specimen descriptions\n   * @param _originHashes hashes of origin permits of specimens\n   * @param _reExportHashes hashes of last re-export permits of specimens\n   */\n  function _createPermit(\n    bytes2 _exportCountry,\n    bytes2 _importCountry,\n    uint8 _permitType,\n    bytes32[3] _exporter,\n    bytes32[3] _importer,\n    uint[] _quantities,\n    bytes32[] _scientificNames,\n    bytes32[] _commonNames,\n    bytes32[] _descriptions,\n    bytes32[] _originHashes,\n    bytes32[] _reExportHashes\n  )\n    private\n  {\n    // Create the new permit by the provided values.\n    Permit memory permit = Permit({\n      exportCountry: _exportCountry,\n      importCountry: _importCountry,\n      permitType: _permitType,\n      exporter: _exporter,\n      importer: _importer,\n      specimenHashes: new bytes32[](_quantities.length),\n      nonce: permitNonce\n    });\n\n    // Generate the unique hash to store the permit.\n    bytes32 permitHash = _getPermitHash(\n      permit.exportCountry,\n      permit.importCountry,\n      permit.permitType,\n      permit.exporter,\n      permit.importer,\n      permit.nonce\n    );\n\n    permits[permitHash] = permit;\n\n\n    // Call to add new specimens.\n    _addSpecimens(\n      permitHash,\n      _quantities,\n      _scientificNames,\n      _commonNames,\n      _descriptions,\n      _originHashes,\n      _reExportHashes\n    );\n\n    emit PermitCreated(\n      permitHash,\n      permit.exportCountry,\n      permit.importCountry\n    );\n\n    // Increase the permit nonce to get continuously unique hash values.\n    permitNonce = permitNonce.add(1);\n  }\n\n  /**\n   * @dev Helper function that creates specimens and stores them in the contract.\n   * @dev Also adds created specimens to related permit.\n   * @param _permitHash hash of related permit\n   * @param _quantities quantities of specimens\n   * @param _scientificNames sc. names of specimens\n   * @param _commonNames common names of specimens\n   * @param _descriptions specimen descriptions\n   * @param _originHashes hashes of origin permits of specimens\n   * @param _reExportHashes hashes of last re-export permits of specimens\n   */\n  function _addSpecimens(\n    bytes32 _permitHash,\n    uint[] _quantities,\n    bytes32[] _scientificNames,\n    bytes32[] _commonNames,\n    bytes32[] _descriptions,\n    bytes32[] _originHashes,\n    bytes32[] _reExportHashes\n  )\n    private\n  {\n    // Do this for all defined specimens.\n    for (uint i = 0; i < _quantities.length; i++) {\n      Specimen memory specimen = Specimen(\n        _permitHash,\n        _quantities[i],\n        _scientificNames[i],\n        _commonNames[i],\n        _descriptions[i],\n        _originHashes[i],\n        _reExportHashes[i]\n      );\n      bytes32 specimenHash = _getSpecimenHash(\n        specimen.permitHash,\n        specimen.quantity,\n        specimen.scientificName,\n        specimen.commmonName,\n        specimen.description,\n        specimen.originHash,\n        specimen.reExportHash\n      );\n      permits[_permitHash].specimenHashes[i] = specimenHash;\n      specimens[specimenHash] = specimen;\n    }\n  }\n}\n",
  "sourcePath": "/home/alex/Documents/PAS_New/cites-on-blocks_dapp/contracts/PermitFactory.sol",
  "compiler": {
    "name": "solc",
    "version": "0.4.23+commit.124ca40d.Emscripten.clang"
  },
  "schemaVersion": "2.0.0",
  "updatedAt": "2018-07-01T17:21:01.056Z"
}